:0C014C000A083F065B4F666D7D077F6F61
:06013700AE071FEE600E92
:0C013D0075120B7513BED513FDD512FA18
:0301490080EC2225
:03008F000D7F08DA
:10009200EF14B4080050549000A775F003A4C58370
:1000A20025F0C583730200BF0200C30200C702002D
:1000B200CB0200CF0200D70200DF0200E7C2A48019
:1000C2000EC2A48012C2A48016C2A4801AD2A4C2F4
:1000D200A3C2A28016D2A4C2A3D2A2800ED2A4D25C
:1000E200A3C2A28006D2A4D2A3D2A274082DF8E69B
:0B00F200F5807FE8120137E4F5802262
:1000FD00E4FDFC7F0812009212008F12008F0D7F1D
:10010D00081200920D7F081200920D7F08120092C6
:10011D000D7F081200920D7F081200920D7F0812BC
:0A012D0000920D7F0812009280C6B8
:03000000020003F8
:0C000300787FE4F6D8FD75811302004AF6
:10000F000200FDE493A3F8E493A34003F68001F20A
:10001F0008DFF48029E493A3F85407240CC8C333F2
:10002F00C4540F4420C8834004F456800146F6DFC1
:10003F00E4800B010204081020408090014CE47E04
:10004F00019360BCA3FF543F30E509541FFEE493B6
:10005F00A360010ECF54C025E060A840B8E493A37D
:10006F00FAE493A3F8E493A3C8C582C8CAC583CAA8
:10007F00F0A3C8C582C8CAC583CADFE9DEE780BE60
:0101580000A6
:00000001FF
