:1004540050617373776F72643A004F4B20004552BA
:06046400520020202000E0
:10018C001204957BFF7A0479547D017F011203F6EA
:10019C00750C04AB1BAA1A7D017F021204371200E6
:1001AC00038F1CE51C60F7D3940A5041C3E51994E6
:1001BC0004E51894005028AE1AAF1B7C007D0A127F
:1001CC0002B18E1A8F1BE51C75F00A84E5F0251B15
:1001DC00F51BE4351AF51A0519E5197002051875A1
:1001EC000C04AB1BAA1A7D017F02120437E51C64B8
:1001FC000B7056E51B64507004E51A64147BFF7099
:10020C00267A04795E7D0E7F011203F6E4F51AF569
:10021C001BF518F519750C04AB1BAA1A7D017F028E
:10022C00120437C2A080227A0479627D0E7F0112FB
:10023C0003F6E4F51AF51BF518F519750C04AB1B50
:10024C00AA1A7D017F02120437E51C640C600302BC
:10025C0001AAF51AF51BF518F519750C04AB1BAAB8
:10026C001A7D017F021204377BFF7A0479667D0EBA
:08027C007F011203F60201AA42
:10048000EF1FAC0670011E4C600A7D0B7CBEDCFECB
:04049000DDFC80EC23
:010494002245
:0604A900C2A58F80D2A75E
:0804AF007F027EEFDEFEDFFCA0
:0104B7002222
:0A04C400C2A61204A9C2A70204AFE9
:10041900CFCDCFCECCCE1202C37C007D0A1202C34F
:04042900ED2430FF8F
:0A042D00D2A61204A9C2A70204AF70
:10046A00AE07BE0104ED148006BE0209ED243F4426
:06047A0080FF1204C42201
:100495007F381204C47F0C1204C47F061204C47F83
:0404A500010204C488
:0A04CE00AC0312046AAF0402042D0F
:0603F6008B088A09890A48
:1003FC0012046AE4FDAB08AA09A90A8D8275830070
:0C040C00120284FF600612042D0D80E92E
:0104180022C1
:0C03C3007F0AEA24FFFDE434FFFC7E000A
:0803CF008E0D8F0E8C0F8D10B6
:1003D7007F017E00E4FBEBC39510E50F6480F874A2
:0E03E7008098500AAC0DAD0E1202B10B80E8EA
:0103F50022E5
:040437008A0A8B0B97
:10043B0012046AAA0CEAD39400400D1203C3AC0A4F
:08044B00AD0B1204191A80ED3B
:010453002286
:1003180012046AC3EA64809480400B7F2B12042D78
:100328008A168B17800E7F2D12042DC3E49BF517B8
:10033800E49AF516AA15EAD39400400D1203C3AC4B
:0903480016AD171204191A80ED1C
:010351002289
:040352008A1F8B2053
:1003560012046AAA21EAD3940040297F101203C529
:10036600AC1FAD20CFCDCFCECCCE1202C3EF540FF3
:10037600FEC3940AEE5004243080022437FF120490
:040386002D1A80D1DB
:01038A002250
:04038B008A248B2510
:10038F0012046AAA26EAD394004028EA24FFFDE467
:10039F0034FFFC7F027E001203CFAC24AD25CFCDFE
:1003AF00CFCECCCE1202C3EF54012430FF12042D56
:0303BF001A80D2CF
:0103C2002218
:10000300E4F5087590FFC2902094137F14FE120448
:10001300803094FD7F147E001204807508102095B3
:10002300147F147E001204803095FD7F147E00122D
:10003300048075080C2096147F147E00120480300F
:1000430096FD7F147E001204807508082097147FA4
:10005300147E001204803097FD7F147E001204800A
:100063007508047590FFC2912094147F147E0012CA
:1000730004803094FD7F147E0012048075080F20E5
:1000830095147F147E001204803095FD7F147E004A
:1000930012048075080B2096147F147E00120480CE
:1000A3003096FD7F147E0012048075080720971494
:1000B3007F147E001204803097FD7F147E001204AB
:1000C300807508037590FFC2922094147F147E00FC
:1000D3001204803094FD7F147E0012048075080E94
:1000E3002095147F147E001204803095FD7F147ECA
:1000F3000012048075080A2096147F147E001204EF
:10010300803096FD7F147E001204807508062097C8
:10011300147F147E001204803097FD7F147E00123A
:1001230004807508027590FFC2932094147F147E97
:10013300001204803094FD7F147E00120480750841
:100143000D2095147F147E001204803095FD7F14DA
:100153007E001204807508092096147F147E001215
:1001630004803096FD7F147E0012048075080520FC
:1001730097147F147E001204803097FD7F147E0055
:08018300120480750801AF08A9
:01018B002251
:030000000204B83F
:0C04B800787FE4F6D8FD75812602018CE7
:10028400BB010CE58229F582E5833AF583E022502F
:1002940006E92582F8E622BBFE06E92582F8E22279
:0D02A400E58229F582E5833AF583E4932293
:1002B100EF8DF0A4A8F0CF8CF0A428CE8DF0A42E61
:0202C100FE221B
:1002C300BC000BBE0029EF8DF084FFADF022E4CC1F
:1002D300F875F008EF2FFFEE33FEEC33FCEE9DECE8
:1002E300984005FCEE9DFE0FD5F0E9E4CEFD22ED2E
:1002F300F8F5F0EE8420D21CFEADF075F008EF2F78
:10030300FFED33FD4007985006D5F0F222C398FD68
:050313000FD5F0EA2205
:00000001FF
