:0B03ED004D61747269784B65793A002D
:1002CB001203BE7BFF7A0379ED7D017F01120335AB
:1002DB00E522FB7A00750C027D017F021203761278
:1002EB0000038F22E52260F7FB7A00750C027D017B
:0702FB007F0212037680E888
:1003A900EF1FAC0670011E4C600A7D0B7CBEDCFEA3
:0403B900DDFC80ECFB
:0103BD00221D
:0603D200C2A58F80D2A736
:0803D8007F027EEFDEFEDFFC78
:0103E00022FA
:0A03F800C2A61203D2C2A70203D866
:10035800CFCDCFCECCCE1201CB7C007D0A1201CB03
:04036800ED2430FF51
:0A036C00D2A61203D2C2A70203D8E2
:10039300AE07BE0104ED148006BE0209ED243F44FE
:0603A30080FF1203F822A6
:1003BE007F381203F87F0C1203F87F061203F87FC2
:0403CE00010203F82D
:0A040200AC03120393AF0402036C75
:060335008B088A09890A09
:10033B00120393E4FDAB08AA09A90A8D8275830009
:0C034B0012018CFF600612036C0D80E9AB
:010357002283
:0C0302007F0AEA24FFFDE434FFFC7E00CB
:08030E008E0D8F0E8C0F8D1077
:100316007F017E00E4FBEBC39510E50F6480F87463
:0E0326008098500AAC0DAD0E1201B90B80E8A4
:0103340022A6
:040376008A0A8B0B59
:10037A00120393AA0CEAD39400400D120302AC0AAA
:08038A00AD0B1203581A80EDBF
:010392002248
:10022000120393C3EA64809480400B7F2B12036C0B
:100230008A168B17800E7F2D12036CC3E49BF51773
:10024000E49AF516AA15EAD39400400D120302AC05
:0902500016AD171203581A80EDD7
:010259002282
:04025A008A1A8B1B56
:10025E00120393AA1CEAD3940040297F10120304C0
:10026E00AC1AAD1BCFCDCFCECCCE1201CBEF540FEF
:10027E00FEC3940AEE5004243080022437FF12038A
:04028E006C1A80D195
:010292002249
:040293008A1F8B2013
:10029700120393AA21EAD394004028EA24FFFDE43D
:1002A70034FFFC7F027E0012030EAC1FAD20CFCDC2
:1002B700CFCECCCE1201CBEF54012430FF12036C0A
:0302C7001A80D2C8
:0102CA002211
:10000300E4F5087590FFC2902094137F14FE120349
:10001300A93094FD7F147E001203A9750810209562
:10002300147F147E001203A93095FD7F147E001205
:1000330003A975080C2096147F147E001203A930BF
:1000430096FD7F147E001203A97508082097147F7C
:10005300147E001203A93097FD7F147E001203A9BA
:100063007508047590FFC2912094147F147E0012CA
:1000730003A93094FD7F147E001203A975080F2095
:1000830095147F147E001203A93095FD7F147E0022
:100093001203A975080B2096147F147E001203A97E
:1000A3003096FD7F147E001203A97508072097146C
:1000B3007F147E001203A93097FD7F147E00120384
:1000C300A97508037590FFC2922094147F147E00D3
:1000D3001203A93094FD7F147E001203A975080E44
:1000E3002095147F147E001203A93095FD7F147EA2
:1000F300001203A975080A2096147F147E001203C8
:10010300A93096FD7F147E001203A9750806209777
:10011300147F147E001203A93097FD7F147E001212
:1001230003A97508027590FFC2932094147F147E6F
:10013300001203A93094FD7F147E001203A97508F1
:100143000D2095147F147E001203A93095FD7F14B2
:100153007E001203A97508092096147F147E0012ED
:1001630003A93096FD7F147E001203A975080520AC
:1001730097147F147E001203A93097FD7F147E002D
:080183001203A9750801AF0881
:01018B002251
:030000000203E117
:0C03E100787FE4F6D8FD7581220202CB83
:10018C00BB010CE58229F582E5833AF583E0225028
:10019C0006E92582F8E622BBFE06E92582F8E22272
:0D01AC00E58229F582E5833AF583E493228C
:1001B900EF8DF0A4A8F0CF8CF0A428CE8DF0A42E5A
:0201C900FE2214
:1001CB00BC000BBE0029EF8DF084FFADF022E4CC18
:1001DB00F875F008EF2FFFEE33FEEC33FCEE9DECE1
:1001EB00984005FCEE9DFE0FD5F0E9E4CEFD22ED27
:1001FB00F8F5F0EE8420D21CFEADF075F008EF2F71
:10020B00FFED33FD4007985006D5F0F222C398FD61
:05021B000FD5F0EA22FE
:00000001FF
