:100172001201551200268F0EE50EB404F6E4FF12AA
:0901820000D88F0D1201CB80EAB8
:0300230002008751
:10008700C0E0C0F0C083C082C0D075D000C000C03F
:1000970001C002C003C004C005C006C007309816DF
:1000A70085990DE50DFD7C00E4FF1201317F057E8A
:1000B7000012018BC298D007D006D005D004D00318
:1000C700D002D001D000D0D0D082D083D0F0D0E001
:0100D70032F6
:100131008F088C098D0A1201C27FA01201081201D9
:10014100A0AF081201081201A0AF0A1201081201A2
:04015100A00201D334
:0200D8008F0B8C
:1000DA001201C27FA01201081201A0AF0B1201087F
:1000EA001201A01201C27FA11201081201A012007E
:0D00FA00038F0C7F011201B81201D3AF0C6F
:0101070022D5
:10018B00EF1FAC0670011E4C600A7D0B7CBEDCFEC3
:04019B00DDFC80EC1B
:01019F00223D
:0901C200D2A0D2A1C2A0C2A12268
:0701D300C2A0D2A1D2A022BC
:02010800AD0741
:10010A00E4FB74807E00A803088006CEA2E713CE23
:10011A0013D8F8FFEDF582EF558224FF92A0D2A101
:06012A00C2A10BBB08DCC2
:0101300022AC
:10000300E4FFD2A0FED2A130A00D7480A806088020
:0D00130002C313D8FC4207C2A10EBE08E8CC
:0100200022BD
:0A01B800EF24FF92A0D2A1C2A12201
:0B01A000D2A0D2A1A2A0E433FFC2A1B4
:0101AB002231
:10015500759850758780D2ACD2AFC2BC53890F4316
:0D0165008920758BF4758DF4D28EC2AB220B
:0801CB008F993099FDC29922C1
:10002600E4F50B20B1137F14FE12018B30B1FD7F76
:10003600147E0012018B750B0120B0147F147E0014
:1000460012018B30B0FD7F147E0012018B750B02FE
:1000560020B2147F147E0012018B30B2FD7F147E15
:100066000012018B750B0320B3147F147E0012015E
:100076008B30B3FD7F147E0012018B750B04AF0B22
:010086002257
:030000000201AC4E
:0C01AC00787FE4F6D8FD75810E02017228
:00000001FF
