:10000E0012033412031D1203618F26E526B4010C70
:10001E00E52570047F0180027F008F25E526B4025E
:10002E000BE4F524F527F529D2A7D2A6E52664031D
:10003E007061E52775F064A47C002529FFEC35F08E
:10004E00FEC3EF94B6EE648094834014D3EF941AFB
:10005E00EE648094845009C2A7D2A67528418033DD
:10006E00C3EF9452EE64809483400CEF94B6EE642A
:10007E0080948350028015C3EF941AEE64809484AA
:10008E004011EF947EEE648094845007C2A7C2A6FE
:10009E00752842E526B40405AF28120003E5247541
:1000AE00F00A84FD7F0812036AE52475F00A84AD18
:1000BE00F07F0712036A7D0B7F0612036AE5277530
:1000CE00F00A84FD7F0512036AE52775F00A84ADF8
:1000DE00F07F0412036A7D0B7F0312036AE5297514
:1000EE00F00A84FD7F0212036AE52975F00A84ADD9
:0900FE00F07F0112036A020014F4
:1002BE00E52560240529E529C394644005E4F52964
:1002CE000527E527C3943C4005E4F5270524E524DE
:0902DE00C3943C4003E4F5242222
:03000B00020107E8
:10010700C0E0C0F0C083C082C0D075D000C000C0BE
:0D01170001C002C003C004C005C006C0073F
:10012400758A66758CFC051FE51F7002051EC39455
:1001340014E51E94004009751E00751F0012028507
:100144000521E52170020520C39402E520940040B6
:10015400097520007521001203040523E5237002AC
:100164000522C3940AE522940040097522007523F0
:04017400001202BEB5
:10017800D007D006D005D004D003D002D001D000DB
:0B018800D0D0D082D083D0F0D0E03285
:10031D005389F0438901758A66758CFCC28DD28C28
:07032D00D2A9D2AFC2B92230
:09036100852D2CE4F52DAF2C22B2
:10034B00E4FF20B1010F20B0027F0220B2027F0335
:05035B0020B3027F0445
:01036000227A
:10028500852A2B12034B8F2AE52BB40107E52A702B
:1002950003752D01E52BB40207E52A7003752D02C0
:1002A500E52BB40307E52A7003752D03E52BB4048C
:0802B50007E52A7003752D0412
:0102BD00221E
:1002E7000909000A0A0A0A0A0A0A0A0C123F065BE7
:0C02F7004F666D7D077F6F00400108011D
:07036A0074092FF8A605221B
:10021F00E4F580EF14B40800505490023775F003E2
:10022F00A4C58325F0C5837302024F020253020255
:10023F005702025B02025F02026702026F0202773D
:10024F00C2A4800EC2A48012C2A48016C2A4801AB7
:10025F00D2A4C2A3C2A28016D2A4C2A3D2A2800EDD
:10026F00D2A4D2A3C2A28006D2A4D2A3D2A27412C5
:06027F002DF8E6F58022D7
:1003040074092508F8E6FDAF0812021F0508E50880
:08031400D394084003750801B1
:01031C0022BE
:1003340075984075878053890F438920758BF475B0
:070344008DF4D28EC2AB2242
:080003008F993099FDC299228A
:0300000002019367
:0C019300787FE4F6D8FD75812D0201DABA
:10019F0002000EE493A3F8E493A34003F68001F268
:1001AF0008DFF48029E493A3F85407240CC8C33361
:1001BF00C4540F4420C8834004F456800146F6DF30
:1001CF00E4800B01020408102040809002E7E47ED7
:1001DF00019360BCA3FF543F30E509541FFEE49325
:1001EF00A360010ECF54C025E060A840B8E493A3EC
:1001FF00FAE493A3F8E493A3C8C582C8CAC583CA17
:10020F00F0A3C8C582C8CAC583CADFE9DEE780BECE
:0103030000F9
:00000001FF
