:1002B1005389F0438901758A66758CFCC28DD28C95
:0702C100D2A9D2AFC2B9229D
:1002580075A0FE1202B11200A28F20E520B401F6AB
:0E0268000521E521C3940240EDE4F52180E874
:03000B00020103EC
:0B010300C0E0C0D075D000C000C007F5
:10010E00758A66758CFC051FE51F7002051EC3946B
:10011E00F4E51E94014029751E00751F00E521703F
:10012E000DAFA07801EF08800123D8FDF5A0E521E1
:10013E00B4010DAFA07801EF08800103D8FDF5A042
:09014E00D007D000D0D0D0E0327F
:1000A200E4F52920B1137F14FE1202DE30B1FD7F88
:1000B200147E001202DE75290120B0147F147E0026
:1000C2001202DE30B0FD7F147E001202DE752902BC
:1000D20020B2147F147E001202DE30B2FD7F147E45
:1000E200001202DE75290320B3147F147E0012026F
:1000F200DE30B3FD7F147E001202DE752904AF29C3
:0101020022DA
:1002DE00EF1FAC0670011E4C600A7D0B7CBEDCFE6F
:0402EE00DDFC80ECC7
:0102F20022E9
:06030700C2A58F80D2A701
:08030D007F027EEFDEFEDFFC43
:0103150022C5
:0A032200C2A6120307C2A702030DD2
:10027600CFCDCFCECCCE12004D7C007D0A12004DE4
:04028600ED2430FF34
:0A028A00D2A6120307C2A702030D5B
:1002C800AE07BE0104ED148006BE0209ED243F44CA
:0602D80080FF1203222248
:1002F3007F381203227F0C1203227F061203227F10
:0403030001020322CE
:0A032C00AC031202C8AF0402028AFB
:060235008B268A278928B0
:10023B001202C8E4FDAB26AA27A9288D827583007C
:0C024B0012000EFF600612028A0D80E90E
:010257002284
:0C0202007F0AEA24FFFDE434FFFC7E00CC
:08020E008E228F238C248D2524
:100216007F017E00E4FBEBC39525E5246480F8743A
:0E0226008098500AAC22AD2312003B0B80E8FA
:0102340022A7
:040294008A118B122E
:100298001202C8AA13EAD39400400D120202AC114C
:0802A800AD121202761A80ED7E
:0102B000222B
:100157001202C8C3EA64809480400B7F2B12028A84
:100167008A0D8B0E800E7F2D12028AC3E49BF50E3B
:10017700E49AF50DAA0CEAD39400400D120202ACE2
:090187000DAD0E1202761A80ED96
:01019000224C
:040191008A168B1728
:100195001202C8AA18EAD3940040297F101202045B
:1001A500AC16AD17CFCDCFCECCCE12004DEF540F40
:1001B500FEC3940AEE5004243080022437FF120255
:0401C5008A1A80D141
:0101C9002213
:0401CA008A1B8B1CE5
:1001CE001202C8AA1DEAD394004028EA24FFFDE4D7
:1001DE0034FFFC7F027E0012020EAC1BAD1CCFCD95
:1001EE00CFCECCCE12004DEF54012430FF12028A36
:0301FE001A80D292
:0102010022DA
:03000000020316E2
:0C031600787FE4F6D8FD758129020258BA
:10000E00BB010CE58229F582E5833AF583E02250A7
:10001E0006E92582F8E622BBFE06E92582F8E222F1
:0D002E00E58229F582E5833AF583E493220B
:10003B00EF8DF0A4A8F0CF8CF0A428CE8DF0A42ED9
:02004B00FE2293
:10004D00BC000BBE0029EF8DF084FFADF022E4CC97
:10005D00F875F008EF2FFFEE33FEEC33FCEE9DEC60
:10006D00984005FCEE9DFE0FD5F0E9E4CEFD22EDA6
:10007D00F8F5F0EE8420D21CFEADF075F008EF2FF0
:10008D00FFED33FD4007985006D5F0F222C398FDE1
:05009D000FD5F0EA227E
:00000001FF
