:10000300759850758780D2ACD2AFC2BC53890F4369
:0D0013008920758BF4758DF4D28EC2AB225E
:080101008F993099FDC299228B
:0A00ED00080848656C6C6F3531217E
:1000B200120003E4F51074082510F8E6FF1201019E
:1000C2000510E510C3940840ED7FE81200DCE5104E
:0A00D200C3940840DEE4F51080D965
:030023000200F8E0
:0900F80030980563A0FFC29832A4
:1000DC00AE071FEE600A7E0B7DBEDDFEDEFC80F0FF
:0100EC0022F1
:03000000020026D5
:0C002600787FE4F6D8FD75811002006DB3
:100032000200B2E493A3F8E493A34003F68001F232
:1000420008DFF48029E493A3F85407240CC8C333CF
:10005200C4540F4420C8834004F456800146F6DF9E
:10006200E4800B01020408102040809000EDE47E41
:10007200019360BCA3FF543F30E509541FFEE49393
:10008200A360010ECF54C025E060A840B8E493A35A
:10009200FAE493A3F8E493A3C8C582C8CAC583CA85
:1000A200F0A3C8C582C8CAC583CADFE9DEE780BE3D
:0100F7000008
:00000001FF
