:10018C001202687D0A7F081200037D0A7F071200A5
:10019C00037D0A7F06120003E52775F00A84FD7FB4
:1001AC0005120003E52775F00A84ADF07F041200F8
:1001BC00037D0A7F031200037D0A7F021200037D78
:0801CC000A7F0112000380BB51
:10020D000529E529C394644005E4F5290527E5276B
:10021D00C3943C4005E4F5270524E524C3943C40F4
:05022D0003E4F52422AA
:03000B0002000EE2
:10000E00C0E0C0F0C083C082C0D075D000C000C0B8
:0D001E0001C002C003C004C005C006C00739
:10002B00758A66758CFC051FE51F7002051EC3944F
:10003B0014E51E94004009751E00751F001201D4B3
:10004B000521E52170020520C39402E520940040B0
:10005B000975200075210012024F0523E52370025C
:10006B000522C3940AE522940040097522007523EA
:04007B000012020D60
:10007F00D007D006D005D004D003D002D001D000D5
:0B008F00D0D0D082D083D0F0D0E0327F
:100268005389F0438901758A66758CFCC28DD28CDE
:07027800D2A9D2AFC2B922E6
:09029500852D2CE4F52DAF2C227F
:10027F00E4FF20B1010F20B0027F0220B2027F0302
:05028F0020B3027F0412
:010294002247
:1001D400852A2B12027F8F2AE52BB40107E52A70AA
:1001E40003752D01E52BB40207E52A7003752D0272
:1001F400E52BB40307E52A7003752D03E52BB4043E
:0802040007E52A7003752D04C3
:01020C0022CF
:100232000909000A0A0A0A0A0A0A0A0C123F065B9C
:0C0242004F666D7D077F6F0040010801D2
:0700030074092FF8A6052285
:10012600E4F580EF14B40800505490013E75F003D6
:10013600A4C58325F0C5837302015602015A020144
:100146005E02016202016602016E02017602017E12
:10015600C2A4800EC2A48012C2A48016C2A4801AB1
:10016600D2A4C2A3C2A28016D2A4C2A3D2A2800ED7
:10017600D2A4D2A3C2A28006D2A4D2A3D2A27412BF
:060186002DF8E6F58022D1
:10024F0074092508F8E6FDAF081201260508E50830
:08025F00D39408400375080167
:010267002274
:0300000002009A61
:0C009A00787FE4F6D8FD75812D0200E1AE
:1000A60002018CE493A3F8E493A34003F68001F2E3
:1000B60008DFF48029E493A3F85407240CC8C3335B
:1000C600C4540F4420C8834004F456800146F6DF2A
:1000D600E4800B0102040810204080900232E47E86
:1000E600019360BCA3FF543F30E509541FFEE4931F
:1000F600A360010ECF54C025E060A840B8E493A3E6
:10010600FAE493A3F8E493A3C8C582C8CAC583CA10
:10011600F0A3C8C582C8CAC583CADFE9DEE780BEC8
:01024E0000AF
:00000001FF
