:100041007BFF7A0079CBAE02AF017D001200037B0A
:10005100FF7A0079DDAE02AF017D0112000375293F
:070061000085278180FE22CB
:1000CB00D20030000CC2A51200AAD2A51200688083
:0100DB00F133
:0100DC002201
:1000DD00D20130010CC2A6120089D2A6120068808E
:0100ED00F121
:0100EE0022EF
:100003008E088F098D0AAF09EF54FFFFAE0AEEC4C5
:100013003354E02448F8A607E508FF7E00AE0AEE55
:10002300C43354E02449F8A607AF0AEFC43354E0BD
:0E0033002448F8AF00AE0A74272EF8A6072264
:10006800AF2974272FF8A681E52970057529018025
:1000780003752900AF2974272FF8E6FF8F81000048
:010088002255
:10008900000075212B7522067523CB1523AF23EFAD
:1000990070F91522AF22EF70F21521AF21EF70EB45
:0100A9002234
:1000AA0000007524167525037526E31526AF26EF7D
:1000BA0070F91525AF25EF70F21524AF24EF70EB18
:0100CA002213
:030000000200EF0C
:0C00EF00787FE4F6D8FD758169020041BD
:00000001FF
