:10000E0012030C1203398F26E526B4010CE5257078
:10001E00047F0180027F008F25E526B40207E4F5F8
:10002E0024F527F529E52664037061E52775F0644C
:10003E00A47C002529FFEC35F0FEC3EF94B6EE64E8
:10004E008094834014D3EF941AEE64809484500904
:10005E00C2A7D2A67528418033C3EF9452EE6480B6
:10006E009483400CEF94B6EE648094835002801516
:10007E00C3EF941AEE648094844011EF947EEE6484
:10008E008094845007C2A7C2A6752842E52475F055
:10009E000A84FD7F08120003E52475F00A84ADF092
:1000AE007F071200037D0B7F06120003E52775F014
:1000BE000A84FD7F05120003E52775F00A84ADF072
:1000CE007F041200037D0B7F03120003E52975F0F8
:1000DE000A84FD7F02120003E52975F00A84ADF053
:0800EE007F0112000302001162
:1002AD00E52560240529E529C394644005E4F52975
:1002BD000527E527C3943C4005E4F5270524E524EF
:0902CD00C3943C4003E4F5242233
:03000B000200F6FA
:1000F600C0E0C0F0C083C082C0D075D000C000C0D0
:0D01060001C002C003C004C005C006C00750
:10011300758A66758CFC051FE51F7002051EC39466
:1001230014E51E94004009751E00751F0012027429
:100133000521E52170020520C39402E520940040C7
:10014300097520007521001202F30523E5237002CF
:100153000522C3940AE52294004009752200752301
:04016300001202ADD7
:10016700D007D006D005D004D003D002D001D000EC
:0B017700D0D0D082D083D0F0D0E03296
:10030C005389F0438901758A66758CFCC28DD28C39
:07031C00D2A9D2AFC2B92241
:09033900852D2CE4F52DAF2C22DA
:10032300E4FF20B1010F20B0027F0220B2027F035D
:0503330020B3027F046D
:0103380022A2
:10027400852A2B1203238F2AE52BB40107E52A7064
:1002840003752D01E52BB40207E52A7003752D02D1
:10029400E52BB40307E52A7003752D03E52BB4049D
:0802A40007E52A7003752D0423
:0102AC00222F
:1002D6000909000A0A0A0A0A0A0A0A0C123F065BF8
:0C02E6004F666D7D077F6F00400108012E
:0700030074092FF8A6052285
:10020E00E4F580EF14B40800505490022675F00304
:10021E00A4C58325F0C5837302023E020242020288
:10022E004602024A02024E02025602025E020266B4
:10023E00C2A4800EC2A48012C2A48016C2A4801AC8
:10024E00D2A4C2A3C2A28016D2A4C2A3D2A2800EEE
:10025E00D2A4D2A3C2A28006D2A4D2A3D2A27412D6
:06026E002DF8E6F58022E8
:1002F30074092508F8E6FDAF0812020E0508E508A3
:08030300D394084003750801C2
:01030B0022CF
:0300000002018278
:0C018200787FE4F6D8FD75812D0201C9DC
:10018E0002000EE493A3F8E493A34003F68001F279
:10019E0008DFF48029E493A3F85407240CC8C33372
:1001AE00C4540F4420C8834004F456800146F6DF41
:1001BE00E4800B01020408102040809002D6E47EF9
:1001CE00019360BCA3FF543F30E509541FFEE49336
:1001DE00A360010ECF54C025E060A840B8E493A3FD
:1001EE00FAE493A3F8E493A3C8C582C8CAC583CA28
:1001FE00F0A3C8C582C8CAC583CADFE9DEE780BEE0
:0102F200000B
:00000001FF
